{
  "_format": "hh-sol-artifact-1",
  "contractName": "PaymasterERC7702",
  "sourceName": "contracts/PaymasterERC7702.sol",
  "abi": [
    {
      "inputs": [],
      "stateMutability": "nonpayable",
      "type": "constructor"
    },
    {
      "inputs": [],
      "name": "InvalidShortString",
      "type": "error"
    },
    {
      "inputs": [
        {
          "internalType": "address",
          "name": "owner",
          "type": "address"
        }
      ],
      "name": "OwnableInvalidOwner",
      "type": "error"
    },
    {
      "inputs": [
        {
          "internalType": "address",
          "name": "account",
          "type": "address"
        }
      ],
      "name": "OwnableUnauthorizedAccount",
      "type": "error"
    },
    {
      "inputs": [
        {
          "internalType": "address",
          "name": "sender",
          "type": "address"
        }
      ],
      "name": "PaymasterUnauthorized",
      "type": "error"
    },
    {
      "inputs": [
        {
          "internalType": "string",
          "name": "str",
          "type": "string"
        }
      ],
      "name": "StringTooLong",
      "type": "error"
    },
    {
      "anonymous": false,
      "inputs": [],
      "name": "EIP712DomainChanged",
      "type": "event"
    },
    {
      "anonymous": false,
      "inputs": [
        {
          "indexed": true,
          "internalType": "address",
          "name": "previousOwner",
          "type": "address"
        },
        {
          "indexed": true,
          "internalType": "address",
          "name": "newOwner",
          "type": "address"
        }
      ],
      "name": "OwnershipTransferred",
      "type": "event"
    },
    {
      "inputs": [
        {
          "internalType": "uint32",
          "name": "unstakeDelaySec",
          "type": "uint32"
        }
      ],
      "name": "addStake",
      "outputs": [],
      "stateMutability": "payable",
      "type": "function"
    },
    {
      "inputs": [],
      "name": "deposit",
      "outputs": [],
      "stateMutability": "payable",
      "type": "function"
    },
    {
      "inputs": [],
      "name": "eip712Domain",
      "outputs": [
        {
          "internalType": "bytes1",
          "name": "fields",
          "type": "bytes1"
        },
        {
          "internalType": "string",
          "name": "name",
          "type": "string"
        },
        {
          "internalType": "string",
          "name": "version",
          "type": "string"
        },
        {
          "internalType": "uint256",
          "name": "chainId",
          "type": "uint256"
        },
        {
          "internalType": "address",
          "name": "verifyingContract",
          "type": "address"
        },
        {
          "internalType": "bytes32",
          "name": "salt",
          "type": "bytes32"
        },
        {
          "internalType": "uint256[]",
          "name": "extensions",
          "type": "uint256[]"
        }
      ],
      "stateMutability": "view",
      "type": "function"
    },
    {
      "inputs": [],
      "name": "entryPoint",
      "outputs": [
        {
          "internalType": "contract IEntryPoint",
          "name": "",
          "type": "address"
        }
      ],
      "stateMutability": "view",
      "type": "function"
    },
    {
      "inputs": [],
      "name": "owner",
      "outputs": [
        {
          "internalType": "address",
          "name": "",
          "type": "address"
        }
      ],
      "stateMutability": "view",
      "type": "function"
    },
    {
      "inputs": [
        {
          "internalType": "enum IPaymaster.PostOpMode",
          "name": "mode",
          "type": "uint8"
        },
        {
          "internalType": "bytes",
          "name": "context",
          "type": "bytes"
        },
        {
          "internalType": "uint256",
          "name": "actualGasCost",
          "type": "uint256"
        },
        {
          "internalType": "uint256",
          "name": "actualUserOpFeePerGas",
          "type": "uint256"
        }
      ],
      "name": "postOp",
      "outputs": [],
      "stateMutability": "nonpayable",
      "type": "function"
    },
    {
      "inputs": [],
      "name": "renounceOwnership",
      "outputs": [],
      "stateMutability": "nonpayable",
      "type": "function"
    },
    {
      "inputs": [
        {
          "internalType": "address",
          "name": "newOwner",
          "type": "address"
        }
      ],
      "name": "transferOwnership",
      "outputs": [],
      "stateMutability": "nonpayable",
      "type": "function"
    },
    {
      "inputs": [],
      "name": "unlockStake",
      "outputs": [],
      "stateMutability": "nonpayable",
      "type": "function"
    },
    {
      "inputs": [
        {
          "components": [
            {
              "internalType": "address",
              "name": "sender",
              "type": "address"
            },
            {
              "internalType": "uint256",
              "name": "nonce",
              "type": "uint256"
            },
            {
              "internalType": "bytes",
              "name": "initCode",
              "type": "bytes"
            },
            {
              "internalType": "bytes",
              "name": "callData",
              "type": "bytes"
            },
            {
              "internalType": "bytes32",
              "name": "accountGasLimits",
              "type": "bytes32"
            },
            {
              "internalType": "uint256",
              "name": "preVerificationGas",
              "type": "uint256"
            },
            {
              "internalType": "bytes32",
              "name": "gasFees",
              "type": "bytes32"
            },
            {
              "internalType": "bytes",
              "name": "paymasterAndData",
              "type": "bytes"
            },
            {
              "internalType": "bytes",
              "name": "signature",
              "type": "bytes"
            }
          ],
          "internalType": "struct PackedUserOperation",
          "name": "userOp",
          "type": "tuple"
        },
        {
          "internalType": "bytes32",
          "name": "userOpHash",
          "type": "bytes32"
        },
        {
          "internalType": "uint256",
          "name": "maxCost",
          "type": "uint256"
        }
      ],
      "name": "validatePaymasterUserOp",
      "outputs": [
        {
          "internalType": "bytes",
          "name": "context",
          "type": "bytes"
        },
        {
          "internalType": "uint256",
          "name": "validationData",
          "type": "uint256"
        }
      ],
      "stateMutability": "nonpayable",
      "type": "function"
    },
    {
      "inputs": [
        {
          "internalType": "address payable",
          "name": "to",
          "type": "address"
        },
        {
          "internalType": "uint256",
          "name": "value",
          "type": "uint256"
        }
      ],
      "name": "withdraw",
      "outputs": [],
      "stateMutability": "nonpayable",
      "type": "function"
    },
    {
      "inputs": [
        {
          "internalType": "address payable",
          "name": "to",
          "type": "address"
        }
      ],
      "name": "withdrawStake",
      "outputs": [],
      "stateMutability": "nonpayable",
      "type": "function"
    },
    {
      "stateMutability": "payable",
      "type": "receive"
    }
  ],
  "bytecode": "0x61016060405234801561001157600080fd5b50306040518060400160405280601281526020017f4d795061796d61737465724552433737303200000000000000000000000000008152506040518060400160405280600181526020017f31000000000000000000000000000000000000000000000000000000000000008152506100936000836101b060201b90919060201c565b61012081815250506100af6001826101b060201b90919060201c565b6101408181525050818051906020012060e08181525050808051906020012061010081815250504660a081815250506100ec61020060201b60201c565b608081815250503073ffffffffffffffffffffffffffffffffffffffff1660c08173ffffffffffffffffffffffffffffffffffffffff16815250505050600073ffffffffffffffffffffffffffffffffffffffff168173ffffffffffffffffffffffffffffffffffffffff160361019b5760006040517f1e4fbdf700000000000000000000000000000000000000000000000000000000815260040161019291906103d4565b60405180910390fd5b6101aa8161025b60201b60201c565b506108ca565b60006020835110156101d2576101cb8361032160201b60201c565b90506101fa565b826101e28361038960201b60201c565b60000190816101f1919061063f565b5060ff60001b90505b92915050565b60007f8b73c3c69bb8fe3d512ecc4cf759cc79239f7b179b0ffacaa9a75d522b39400f60e051610100514630604051602001610240959493929190610739565b60405160208183030381529060405280519060200120905090565b6000600260009054906101000a900473ffffffffffffffffffffffffffffffffffffffff16905081600260006101000a81548173ffffffffffffffffffffffffffffffffffffffff021916908373ffffffffffffffffffffffffffffffffffffffff1602179055508173ffffffffffffffffffffffffffffffffffffffff168173ffffffffffffffffffffffffffffffffffffffff167f8be0079c531659141344cd1fd0a4f28419497f9722a3daafe3b4186f6b6457e060405160405180910390a35050565b600080829050601f8151111561036e57826040517f305a27a90000000000000000000000000000000000000000000000000000000081526004016103659190610811565b60405180910390fd5b80518161037a90610863565b60001c1760001b915050919050565b6000819050919050565b600073ffffffffffffffffffffffffffffffffffffffff82169050919050565b60006103be82610393565b9050919050565b6103ce816103b3565b82525050565b60006020820190506103e960008301846103c5565b92915050565b600081519050919050565b7f4e487b7100000000000000000000000000000000000000000000000000000000600052604160045260246000fd5b7f4e487b7100000000000000000000000000000000000000000000000000000000600052602260045260246000fd5b6000600282049050600182168061047057607f821691505b60208210810361048357610482610429565b5b50919050565b60008190508160005260206000209050919050565b60006020601f8301049050919050565b600082821b905092915050565b6000600883026104eb7fffffffffffffffffffffffffffffffffffffffffffffffffffffffffffffffff826104ae565b6104f586836104ae565b95508019841693508086168417925050509392505050565b6000819050919050565b6000819050919050565b600061053c6105376105328461050d565b610517565b61050d565b9050919050565b6000819050919050565b61055683610521565b61056a61056282610543565b8484546104bb565b825550505050565b600090565b61057f610572565b61058a81848461054d565b505050565b5b818110156105ae576105a3600082610577565b600181019050610590565b5050565b601f8211156105f3576105c481610489565b6105cd8461049e565b810160208510156105dc578190505b6105f06105e88561049e565b83018261058f565b50505b505050565b600082821c905092915050565b6000610616600019846008026105f8565b1980831691505092915050565b600061062f8383610605565b9150826002028217905092915050565b610648826103ef565b67ffffffffffffffff811115610661576106606103fa565b5b61066b8254610458565b6106768282856105b2565b600060209050601f8311600181146106a95760008415610697578287015190505b6106a18582610623565b865550610709565b601f1984166106b786610489565b60005b828110156106df578489015182556001820191506020850194506020810190506106ba565b868310156106fc57848901516106f8601f891682610605565b8355505b6001600288020188555050505b505050505050565b6000819050919050565b61072481610711565b82525050565b6107338161050d565b82525050565b600060a08201905061074e600083018861071b565b61075b602083018761071b565b610768604083018661071b565b610775606083018561072a565b61078260808301846103c5565b9695505050505050565b600082825260208201905092915050565b60005b838110156107bb5780820151818401526020810190506107a0565b60008484015250505050565b6000601f19601f8301169050919050565b60006107e3826103ef565b6107ed818561078c565b93506107fd81856020860161079d565b610806816107c7565b840191505092915050565b6000602082019050818103600083015261082b81846107d8565b905092915050565b600081519050919050565b6000819050602082019050919050565b600061085a8251610711565b80915050919050565b600061086e82610833565b826108788461083e565b90506108838161084e565b925060208210156108c3576108be7fffffffffffffffffffffffffffffffffffffffffffffffffffffffffffffffff836020036008026104ae565b831692505b5050919050565b60805160a05160c05160e051610100516101205161014051611e736109246000396000610913015260006108d8015260006111d7015260006111b601526000610f0701526000610f5d01526000610f860152611e736000f3fe6080604052600436106100ab5760003560e01c8063b0d691fe11610064578063b0d691fe146101ad578063bb9fe6bf146101d8578063c23a5cea146101ef578063d0e30db014610218578063f2fde38b14610222578063f3fef3a31461024b576100b2565b80630396cb60146100b757806352b7512c146100d3578063715018a6146101115780637c627b211461012857806384b0196e146101515780638da5cb5b14610182576100b2565b366100b257005b600080fd5b6100d160048036038101906100cc919061126d565b610274565b005b3480156100df57600080fd5b506100fa60048036038101906100f5919061132b565b6102ea565b604051610108929190611439565b60405180910390f35b34801561011d57600080fd5b5061012661030d565b005b34801561013457600080fd5b5061014f600480360381019061014a91906114f3565b610321565b005b34801561015d57600080fd5b5061016661033d565b6040516101799796959493929190611719565b60405180910390f35b34801561018e57600080fd5b506101976103e7565b6040516101a4919061179d565b60405180910390f35b3480156101b957600080fd5b506101c2610411565b6040516101cf9190611817565b60405180910390f35b3480156101e457600080fd5b506101ed61042d565b005b3480156101fb57600080fd5b5061021660048036038101906102119190611870565b61049e565b005b61022061051b565b005b34801561022e57600080fd5b50610249600480360381019061024491906118c9565b610590565b005b34801561025757600080fd5b50610272600480360381019061026d91906118f6565b610616565b005b61027c610411565b73ffffffffffffffffffffffffffffffffffffffff16630396cb6034836040518363ffffffff1660e01b81526004016102b59190611945565b6000604051808303818588803b1580156102ce57600080fd5b505af11580156102e2573d6000803e3d6000fd5b505050505050565b606060006102f6610696565b610301858585610715565b91509150935093915050565b61031561077b565b61031f6000610802565b565b610329610696565b61033685858585856108c8565b5050505050565b6000606080600080600060606103516108cf565b61035961090a565b46306000801b600067ffffffffffffffff81111561037a57610379611960565b5b6040519080825280602002602001820160405280156103a85781602001602082028036833780820191505090505b507f0f00000000000000000000000000000000000000000000000000000000000000959493929190965096509650965096509650965090919293949596565b6000600260009054906101000a900473ffffffffffffffffffffffffffffffffffffffff16905090565b6000734337084d9e255ff0702461cf8895ce9e3b5ff108905090565b610435610945565b61043d610411565b73ffffffffffffffffffffffffffffffffffffffff1663bb9fe6bf6040518163ffffffff1660e01b8152600401600060405180830381600087803b15801561048457600080fd5b505af1158015610498573d6000803e3d6000fd5b50505050565b6104a6610945565b6104ae610411565b73ffffffffffffffffffffffffffffffffffffffff1663c23a5cea826040518263ffffffff1660e01b81526004016104e6919061199e565b600060405180830381600087803b15801561050057600080fd5b505af1158015610514573d6000803e3d6000fd5b5050505050565b610523610411565b73ffffffffffffffffffffffffffffffffffffffff1663b760faf934306040518363ffffffff1660e01b815260040161055c919061179d565b6000604051808303818588803b15801561057557600080fd5b505af1158015610589573d6000803e3d6000fd5b5050505050565b61059861077b565b600073ffffffffffffffffffffffffffffffffffffffff168173ffffffffffffffffffffffffffffffffffffffff160361060a5760006040517f1e4fbdf7000000000000000000000000000000000000000000000000000000008152600401610601919061179d565b60405180910390fd5b61061381610802565b50565b61061e610945565b610626610411565b73ffffffffffffffffffffffffffffffffffffffff1663205c287883836040518363ffffffff1660e01b81526004016106609291906119b9565b600060405180830381600087803b15801561067a57600080fd5b505af115801561068e573d6000803e3d6000fd5b505050505050565b60003390506106a3610411565b73ffffffffffffffffffffffffffffffffffffffff168173ffffffffffffffffffffffffffffffffffffffff161461071257806040517f327499a7000000000000000000000000000000000000000000000000000000008152600401610709919061179d565b60405180910390fd5b50565b606060008060003660006107288961094f565b93509350935093506040518060200160405280600081525061076b858561075a6107538e8a8a6109cd565b8787610ab9565b1515610b7b9092919063ffffffff16565b9550955050505050935093915050565b610783610b9d565b73ffffffffffffffffffffffffffffffffffffffff166107a16103e7565b73ffffffffffffffffffffffffffffffffffffffff1614610800576107c4610b9d565b6040517f118cdaa70000000000000000000000000000000000000000000000000000000081526004016107f7919061179d565b60405180910390fd5b565b6000600260009054906101000a900473ffffffffffffffffffffffffffffffffffffffff16905081600260006101000a81548173ffffffffffffffffffffffffffffffffffffffff021916908373ffffffffffffffffffffffffffffffffffffffff1602179055508173ffffffffffffffffffffffffffffffffffffffff168173ffffffffffffffffffffffffffffffffffffffff167f8be0079c531659141344cd1fd0a4f28419497f9722a3daafe3b4186f6b6457e060405160405180910390a35050565b5050505050565b606061090560007f0000000000000000000000000000000000000000000000000000000000000000610ba590919063ffffffff16565b905090565b606061094060017f0000000000000000000000000000000000000000000000000000000000000000610ba590919063ffffffff16565b905090565b61094d61077b565b565b60008036600036600061096187610c55565b915091508181600090600692610979939291906119ec565b906109849190611a6b565b60d01c8282600690600c9261099b939291906119ec565b906109a69190611a6b565b60d01c8383600c9080926109bc939291906119ec565b955095509550955050509193509193565b6000610ab07f0c330b34f0aad8cab1ae5a4241b0d75388786a99fffb1a39c5ce8dec5a570067856000016020810190610a0691906118c9565b8660200135878060400190610a1b9190611ad9565b604051610a29929190611b7b565b6040518091039020888060600190610a419190611ad9565b604051610a4f929190611b7b565b604051809103902089608001358a60a001358b60c00135610a6f8d610ca9565b610a788e610d15565b8d8d604051602001610a959c9b9a99989796959493929190611bb5565b60405160208183030381529060405280519060200120610d81565b90509392505050565b6000806000610b0c8686868080601f016020809104026020016040519081016040528093929190818152602001838380828437600081840152601f19601f82011690508083019250505050505050610d9b565b50915091508173ffffffffffffffffffffffffffffffffffffffff163073ffffffffffffffffffffffffffffffffffffffff16148015610b70575060006003811115610b5b57610b5a611c6f565b5b816003811115610b6e57610b6d611c6f565b5b145b925050509392505050565b6000610b94610b8d8560006001610df7565b8484610e11565b90509392505050565b600033905090565b606060ff60001b8314610bc257610bbb83610e81565b9050610c4f565b818054610bce90611ccd565b80601f0160208091040260200160405190810160405280929190818152602001828054610bfa90611ccd565b8015610c475780601f10610c1c57610100808354040283529160200191610c47565b820191906000526020600020905b815481529060010190602001808311610c2a57829003601f168201915b505050505090505b92915050565b3660006034838060e00190610c6a9190611ad9565b905010610c9757828060e00190610c819190611ad9565b6034908092610c92939291906119ec565b610ca0565b610c9f610ef5565b5b91509150915091565b60006034828060e00190610cbd9190611ad9565b905010610cf957818060e00190610cd49190611ad9565b601490602492610ce6939291906119ec565b90610cf19190611d2a565b60801c610cfc565b60005b6fffffffffffffffffffffffffffffffff169050919050565b60006034828060e00190610d299190611ad9565b905010610d6557818060e00190610d409190611ad9565b602490603492610d52939291906119ec565b90610d5d9190611d2a565b60801c610d68565b60005b6fffffffffffffffffffffffffffffffff169050919050565b6000610d94610d8e610f03565b83610fba565b9050919050565b60008060006041845103610de05760008060006020870151925060408701519150606087015160001a9050610dd288828585610ffb565b955095509550505050610df0565b60006002855160001b9250925092505b9250925092565b6000610e02846110ef565b82841802821890509392505050565b6000610e758460601b610e508460d01b8660d01b79ffffffffffffffffffffffffffffffffffffffffffffffffffff19166110fb90919063ffffffff16565b73ffffffffffffffffffffffffffffffffffffffff191661111e90919063ffffffff16565b60001c90509392505050565b60606000610e8e83611141565b90506000602067ffffffffffffffff811115610ead57610eac611960565b5b6040519080825280601f01601f191660200182016040528015610edf5781602001600182028036833780820191505090505b5090508181528360208201528092505050919050565b366000809150600090509091565b60007f000000000000000000000000000000000000000000000000000000000000000073ffffffffffffffffffffffffffffffffffffffff163073ffffffffffffffffffffffffffffffffffffffff16148015610f7f57507f000000000000000000000000000000000000000000000000000000000000000046145b15610fac577f00000000000000000000000000000000000000000000000000000000000000009050610fb7565b610fb4611191565b90505b90565b60006040517f190100000000000000000000000000000000000000000000000000000000000081528360028201528260228201526042812091505092915050565b60008060007f7fffffffffffffffffffffffffffffff5d576e7357a4501ddfe92f46681b20a08460001c111561103b5760006003859250925092506110e5565b6000600188888888604051600081526020016040526040516110609493929190611da5565b6020604051602081039080840390855afa158015611082573d6000803e3d6000fd5b505050602060405103519050600073ffffffffffffffffffffffffffffffffffffffff168173ffffffffffffffffffffffffffffffffffffffff16036110d657600060016000801b935093509350506110e5565b8060008060001b935093509350505b9450945094915050565b60008115159050919050565b6000801960d01b8316925060001960d01b821691508160301c8317905092915050565b6000801960a01b8316925060001960601b821691508160601c8317905092915050565b60008060ff8360001c169050601f811115611188576040517fb3512b0c00000000000000000000000000000000000000000000000000000000815260040160405180910390fd5b80915050919050565b60007f8b73c3c69bb8fe3d512ecc4cf759cc79239f7b179b0ffacaa9a75d522b39400f7f00000000000000000000000000000000000000000000000000000000000000007f0000000000000000000000000000000000000000000000000000000000000000463060405160200161120c959493929190611dea565b60405160208183030381529060405280519060200120905090565b600080fd5b600080fd5b600063ffffffff82169050919050565b61124a81611231565b811461125557600080fd5b50565b60008135905061126781611241565b92915050565b60006020828403121561128357611282611227565b5b600061129184828501611258565b91505092915050565b600080fd5b600061012082840312156112b6576112b561129a565b5b81905092915050565b6000819050919050565b6112d2816112bf565b81146112dd57600080fd5b50565b6000813590506112ef816112c9565b92915050565b6000819050919050565b611308816112f5565b811461131357600080fd5b50565b600081359050611325816112ff565b92915050565b60008060006060848603121561134457611343611227565b5b600084013567ffffffffffffffff8111156113625761136161122c565b5b61136e8682870161129f565b935050602061137f868287016112e0565b925050604061139086828701611316565b9150509250925092565b600081519050919050565b600082825260208201905092915050565b60005b838110156113d45780820151818401526020810190506113b9565b60008484015250505050565b6000601f19601f8301169050919050565b60006113fc8261139a565b61140681856113a5565b93506114168185602086016113b6565b61141f816113e0565b840191505092915050565b611433816112f5565b82525050565b6000604082019050818103600083015261145381856113f1565b9050611462602083018461142a565b9392505050565b6003811061147657600080fd5b50565b60008135905061148881611469565b92915050565b600080fd5b600080fd5b600080fd5b60008083601f8401126114b3576114b261148e565b5b8235905067ffffffffffffffff8111156114d0576114cf611493565b5b6020830191508360018202830111156114ec576114eb611498565b5b9250929050565b60008060008060006080868803121561150f5761150e611227565b5b600061151d88828901611479565b955050602086013567ffffffffffffffff81111561153e5761153d61122c565b5b61154a8882890161149d565b9450945050604061155d88828901611316565b925050606061156e88828901611316565b9150509295509295909350565b60007fff0000000000000000000000000000000000000000000000000000000000000082169050919050565b6115b08161157b565b82525050565b600081519050919050565b600082825260208201905092915050565b60006115dd826115b6565b6115e781856115c1565b93506115f78185602086016113b6565b611600816113e0565b840191505092915050565b600073ffffffffffffffffffffffffffffffffffffffff82169050919050565b60006116368261160b565b9050919050565b6116468161162b565b82525050565b611655816112bf565b82525050565b600081519050919050565b600082825260208201905092915050565b6000819050602082019050919050565b611690816112f5565b82525050565b60006116a28383611687565b60208301905092915050565b6000602082019050919050565b60006116c68261165b565b6116d08185611666565b93506116db83611677565b8060005b8381101561170c5781516116f38882611696565b97506116fe836116ae565b9250506001810190506116df565b5085935050505092915050565b600060e08201905061172e600083018a6115a7565b818103602083015261174081896115d2565b9050818103604083015261175481886115d2565b9050611763606083018761142a565b611770608083018661163d565b61177d60a083018561164c565b81810360c083015261178f81846116bb565b905098975050505050505050565b60006020820190506117b2600083018461163d565b92915050565b6000819050919050565b60006117dd6117d86117d38461160b565b6117b8565b61160b565b9050919050565b60006117ef826117c2565b9050919050565b6000611801826117e4565b9050919050565b611811816117f6565b82525050565b600060208201905061182c6000830184611808565b92915050565b600061183d8261160b565b9050919050565b61184d81611832565b811461185857600080fd5b50565b60008135905061186a81611844565b92915050565b60006020828403121561188657611885611227565b5b60006118948482850161185b565b91505092915050565b6118a68161162b565b81146118b157600080fd5b50565b6000813590506118c38161189d565b92915050565b6000602082840312156118df576118de611227565b5b60006118ed848285016118b4565b91505092915050565b6000806040838503121561190d5761190c611227565b5b600061191b8582860161185b565b925050602061192c85828601611316565b9150509250929050565b61193f81611231565b82525050565b600060208201905061195a6000830184611936565b92915050565b7f4e487b7100000000000000000000000000000000000000000000000000000000600052604160045260246000fd5b61199881611832565b82525050565b60006020820190506119b3600083018461198f565b92915050565b60006040820190506119ce600083018561198f565b6119db602083018461142a565b9392505050565b600080fd5b600080fd5b60008085851115611a00576119ff6119e2565b5b83861115611a1157611a106119e7565b5b6001850283019150848603905094509492505050565b600082905092915050565b60007fffffffffffff000000000000000000000000000000000000000000000000000082169050919050565b600082821b905092915050565b6000611a778383611a27565b82611a828135611a32565b92506006821015611ac257611abd7fffffffffffff000000000000000000000000000000000000000000000000000083600603600802611a5e565b831692505b505092915050565b600080fd5b600080fd5b600080fd5b60008083356001602003843603038112611af657611af5611aca565b5b80840192508235915067ffffffffffffffff821115611b1857611b17611acf565b5b602083019250600182023603831315611b3457611b33611ad4565b5b509250929050565b600081905092915050565b82818337600083830152505050565b6000611b628385611b3c565b9350611b6f838584611b47565b82840190509392505050565b6000611b88828486611b56565b91508190509392505050565b600065ffffffffffff82169050919050565b611baf81611b94565b82525050565b600061018082019050611bcb600083018f61164c565b611bd8602083018e61163d565b611be5604083018d61142a565b611bf2606083018c61164c565b611bff608083018b61164c565b611c0c60a083018a61164c565b611c1960c083018961142a565b611c2660e083018861164c565b611c3461010083018761142a565b611c4261012083018661142a565b611c50610140830185611ba6565b611c5e610160830184611ba6565b9d9c50505050505050505050505050565b7f4e487b7100000000000000000000000000000000000000000000000000000000600052602160045260246000fd5b7f4e487b7100000000000000000000000000000000000000000000000000000000600052602260045260246000fd5b60006002820490506001821680611ce557607f821691505b602082108103611cf857611cf7611c9e565b5b50919050565b60007fffffffffffffffffffffffffffffffff0000000000000000000000000000000082169050919050565b6000611d368383611a27565b82611d418135611cfe565b92506010821015611d8157611d7c7fffffffffffffffffffffffffffffffff0000000000000000000000000000000083601003600802611a5e565b831692505b505092915050565b600060ff82169050919050565b611d9f81611d89565b82525050565b6000608082019050611dba600083018761164c565b611dc76020830186611d96565b611dd4604083018561164c565b611de1606083018461164c565b95945050505050565b600060a082019050611dff600083018861164c565b611e0c602083018761164c565b611e19604083018661164c565b611e26606083018561142a565b611e33608083018461163d565b969550505050505056fea26469706673582212208e591732cf0003ce9ea73230dde7872c2c0362f4eac7d515f86e9273922757d664736f6c634300081c0033",
  "linkReferences": {},
  "deployedLinkReferences": {}
}